:020000040800F2
:1000000000080024AD020008EB3600082D36000879
:10001000E93600087B080008F942000800000000EB
:10002000000000000000000000000000313900085E
:10003000A10A000800000000ED360008333900086E
:10004000C7020008C7020008C7020008C70200086C
:10005000C7020008C7020008C7020008C70200085C
:10006000C7020008C7020008C70200087D08000890
:10007000C7020008C7020008C7020008C70200083C
:10008000C7020008C7020008C7020008C70200082C
:10009000C7020008C7020008C7020008C70200081C
:1000A000C7020008C7020008C7020008C70200080C
:1000B000C7020008C7020008C7020008C7020008FC
:1000C000C7020008C7020008C7020008C7020008EC
:1000D000C7020008ED420008C7020008C702000876
:1000E000C7020008C702000800000000C70200089D
:1000F000C7020008C7020008C7020008C7020008BC
:10010000C7020008C7020008C7020008C7020008AB
:10011000C7020008C7020008C7020008C70200089B
:10012000C7020008C7020008C7020008C70200088B
:10013000C7020008C7020008C7020008C70200087B
:1001400000000000000000000000000000000000AF
:10015000C7020008C7020008C7020008C70200085B
:10016000C7020008C7020008C7020008C70200084B
:10017000C7020008C7020008C7020008000000000C
:10018000C7020008C7020008C7020008C70200082B
:10019000C7020008C7020008C7020008C70200081B
:1001A000C7020008C7020008C7020008C70200080B
:1001B000C7020008C7020008C7020008C7020008FB
:1001C000C7020008C7020008C7020008C7020008EB
:1001D000C7020008C7020008C7020008C7020008DB
:1001E000C7020008C7020008C7020008C7020008CB
:1001F000C7020008C7020008C7020008C7020008BB
:10020000C7020008C7020008C7020008C7020008AA
:10021000C7020008C7020008C7020008C70200089A
:10022000C7020008C7020008C7020008000000005B
:10023000C7020008C702000800000000C70200084B
:10024000C7020008C7020008C7020008C70200086A
:10025000C7020008C7020008C7020008C70200085A
:10026000C7020008C7020008C7020008C70200084A
:10027000C7020008C7020008C7020008000000000B
:10028000C7020008C7020008C702000800000000FB
:1002900000000000C7020008DFF80CD000F06CFA84
:1002A00000480047594C00080008002406488047D1
:1002B00006480047FEE7FEE7FEE7FEE7FEE7FEE74B
:1002C000FEE7FEE7FEE7FEE7E539000899020008D1
:1002D0002DE9F05F0546002092469B46884606467B
:1002E000814640241BE0284641464746224600F00E
:1002F0007BF853465A46C01A914110D3114618460E
:10030000224600F062F82D1A67EB01084F4622469C
:100310000120002100F059F817EB00094E41201E82
:10032000A4F10104DFDC484631462A464346BDE8D5
:10033000F09FD2B201E000F8012B491EFBD27047BA
:100340000022F6E710B513460A4604461946FFF7A1
:10035000F0FF204610BD421C10F8011B0029FBD104
:10036000801A704710B5002200E0521C835C8C5C40
:10037000A34201D1002BF8D1D8B2E1B2401A10BD8E
:1003800030B505460020034600E05B1C934205D2D1
:10039000EC5CC85C201A01D1002CF6D130BD30B520
:1003A0000B46014600202022012409E021FA02F533
:1003B0009D4205D303FA02F5491B04FA02F52844CD
:1003C000151EA2F10102F1DC30BD202A04DB203A27
:1003D00000FA02F1002070479140C2F1200320FA98
:1003E00003F3194390407047202A04DB203A21FA96
:1003F00002F00021704721FA02F3D040C2F120023E
:1004000091400843194670472DE9FE4F804681EA26
:100410000300C00F0C46009021F0004123F000457E
:10042000B8EB0200A94105D24046214690461C4641
:100430000B46024623F00040104347D0270DC7F378
:100440000A00C3F30A510290401A019040286BDA67
:10045000C3F3130040F4801B0098924620B10023A0
:10046000D2EB030A63EB0B0B01985946C0F1400233
:100470005046FFF7AAFF06460D4650465946019AD8
:1004800000F08CF910EB08006141002487EA11525A
:1004900084EAE7731A4340D0009A62B3019A012AB2
:1004A0004FEA075215DC001B61EB02014FF00042DE
:1004B00002EA0752CDE90042001C41F580113246A4
:1004C0002B4600F08CF903B0BDE8F08F4046214682
:1004D000F9E7001B61EB0201001C41F580130018D5
:1004E0005B412018A2F5001747EB030140EAD570E5
:1004F000B6196D4111E06D084FEA360645EAC07540
:100500004FEA0752001B61EB0201001C41F580110C
:1005100049084FEA30000019514132462B4603B0DA
:10052000BDE8F04F00F04CB90098012240000023D4
:10053000D0EB020263EBE073009821464FEAE074CF
:10054000B8EB000061EB0401E9E783F000435BE7EF
:1005500081F0004158E72DE9FE4F81EA030404F0E1
:10056000004421F0004100944FF0000B23F00043C1
:1005700050EA01045ED052EA03045BD0C3F30A548C
:10058000C1F30A552C44A4F2F3340194A0FB0254A5
:10059000C1F3130141F48011C3F3130343F4801337
:1005A00001FB024400FB034E840A970A44EA81548B
:1005B00047EA8357A4FB076802958D0A05FB078568
:1005C0004FEA932C04FB0C542705029D4FEA065872
:1005D00047EA1637B5EB08056EEB070C870E920E4F
:1005E00047EA811742EA8312A7FB0201B6EB0B012F
:1005F00064EB00042B0D43EA0C335E1844EB1C50F3
:10060000DA465146E7FB0201C5F313044FEA0B3308
:1006100043EA14534FEA0432019C43EA0603A4F16F
:100620000C040294009CCDE900B400F0D8F803B0AB
:10063000BDE8F08F00200146F9E72DE9F04D81EA91
:10064000030404F0004B21F0004514464FF0000A6B
:1006500023F0004150EA050220D054EA01021DD0E7
:10066000C5F30A570246C5F31303C1F31300C1F3E0
:100670000A5640F4801543F48013A7EB0608101BBC
:10068000D64608F2FD3873EB050002D308F10108E5
:1006900001E092185B41B8F1000F03DA0020014637
:1006A000BDE8F08D00204FF48011064684460EE030
:1006B000171B73EB050705D3121B63EB05030643FA
:1006C0004CEA010C49084FEA300092185B4150EAAD
:1006D0000107EDD152EA030012D082EA040083EA56
:1006E0000501084305D0101BAB4106D201220023AF
:1006F00006E000224FF0004302E06FF001025310C9
:100700001AEB06004CEB085110EB0A0041EB0B0111
:10071000BDE8F04D00F054B8C1F30A52C1F3130123
:1007200040F2FF3341F480119A4202DA0020014680
:10073000704740F233439A42A2F2334202DC524203
:10074000FFF752BEFFF741BE30B5041E71F1000441
:1007500004DB4FF00044404264EB0101141E73F1CE
:10076000000405DB1C464FF00043524263EB0403D8
:10077000994208BF904230BD064C074D06E0E06844
:1007800040F0010394E8070098471034AC42F6D3D8
:10079000FFF786FD2C6300084C630008202A06DB67
:1007A000CB17203A41FA02F043EAE07306E041FA3F
:1007B00002F3D040C2F1200291400843194670472D
:1007C00010B5141E73F1000408DA401C41F1000159
:1007D00092185B411A4301D120F0010010BD2DE9B0
:1007E000F04D92469B4611B1B1FA81F202E0B0FAA7
:1007F00080F220329046FFF7E8FD04460F4640EABB
:100800000A0041EA0B0153465A46084313D01146E9
:1008100053EA010019D0C8F140025046FFF7E4FD49
:1008200005460E46504659464246FFF7CEFD084360
:1008300005D0012004E020463946BDE8F08D0020B7
:10084000054346EAE0762C4337430A986305E40AF9
:10085000A0EB08000022FD0A44EA47540A3002D502
:1008600000200146E9E7010510196941DDE9084565
:1008700000196941BDE8F04DA2E7FEE7014800F02C
:1008800053BA0000FC000024294A016891423AD082
:10089000274A1832914236D0254A3032914232D01E
:1008A000234A483291422ED0214A603291422AD0C6
:1008B0001F4A7832914226D01D4A9032914222D06E
:1008C0001B4AA83291421ED01A4A91421BD0194AA3
:1008D0001832914217D0174A3032914213D0154A3C
:1008E000483291420FD0134A603291420BD0114AE4
:1008F0007832914207D00F4A9032914203D00D4A8C
:10090000A832914211D1CAB21823103AB2FBF3F2C5
:100910006FF30901032A02F00703074AD25CC2659C
:1009200000D9091D81650846704721F0FF01F9E7EC
:100930001000024010040240645F000830B5224AF3
:10094000012301689142CAB21BD01F4C1434A1424A
:1009500017D01D4C2834A14213D01B4C3C34A1426B
:100960000FD0194C5034A1420BD0174C6434A14223
:1009700007D0154C7834A14203D0134C8C34A142DB
:100980000CD11421114C083AB2FBF1F10F4A80321C
:1009900001F01F0504EB8101AB4010E00C4D182461
:1009A000103A0D44B2FBF4F1A82D00D80831094AE1
:1009B00001F01F0402EB8101064AA340803260303F
:1009C00080E80E0030BD000008540258005802585C
:1009D000F0FBFDBF0008024010B50279531E072B43
:1009E0002DD8174C0168A1421BD0154C1434A142DC
:1009F00017D0134C2834A14213D0114C3C34A142DF
:100A00000FD00F4C5034A1420BD00D4C6434A14296
:100A100007D00B4C7834A14203D0094C8C34A1424E
:100A200003D10849074C443102E00749064C4431E0
:100A300004EB8202C0E91B2101219940416710BDEE
:100A400008540258FC580258FC08024010B583694B
:100A50004FF0C074826A0146002053B1B3F5005FC5
:100A600015D072B1012A0CD0022A0AD0032A09D16A
:100A700004E01AB1012A06D0022A03D1C96AC901C9
:100A800000D5012010BDC96AA142FAD010BD002ACC
:100A9000F7D0012AF2D0022AF3D0032AF3D010BDF6
:100AA000704770472DE9F05F28B190F835100229A2
:100AB00004D0802141650120BDE8F09F904C904B0F
:100AC0000168183C18338E4ADFF83C92A1428D4CE5
:100AD000DFF838E28E4FDFF83CB2DFF83CA28F4DF2
:100AE0008F4E31D091422FD099422DD0A1422BD0A0
:100AF000494529D0714527D0B94225D0DFF810C229
:100B00000CF1180C61451FD0DFF808C2ACF1600C85
:100B1000614519D0DFF8FCC1ACF1480C614513D038
:100B2000DFF8F0C1ACF1300C61450DD0DFF8E4C165
:100B3000ACF1180C614507D0594505D0514503D09B
:100B4000A94201D0B1422CD1DFF8B4C14FF0040862
:100B500080F83580ACF1180C61451DD091421BD056
:100B6000994219D0A14217D0494515D0714513D0EB
:100B7000B94211D06648183081420DD065486038BE
:100B8000814209D063484838814205D061483038F5
:100B9000814201D05F481838086820F001000860E1
:100BA000ABE0D1F800C02CF00E08DFF854C1C1F85A
:100BB0000080ACF1180C0168614527D0914225D026
:100BC000994223D0A14221D049451FD071451DD063
:100BD000B9421BD0DFF838C10CF1180C614515D0B3
:100BE000DFF830C1ACF1600C61450FD0DFF824C1F3
:100BF000ACF1480C614509D0DFF818C1ACF1300CFC
:100C0000614503D0DFF80CC1ACF1180CD1F800C07D
:100C10002CF0010CC1F800C0DFF8E4804FF0010CAB
:100C20000168A8F11808414546D0914244D0994244
:100C300042D0A14240D049453ED071453CD0B94256
:100C40003AD0334A1832914236D0324A603A914211
:100C500032D0304A483A91422ED02E4A303A914210
:100C60002AD02C4A183A914226D0594524D05145D1
:100C700022D0A94220D0B1421ED02A4A91421BD094
:100C8000284A1432914217D0264A2832914213D072
:100C9000244A3C3291420FD0224A503291420BD02A
:100CA000204A6432914207D01E4A7832914203D0E2
:100CB0001C4A8C32914218D1016E0A6822F480726B
:100CC0000A6090F85C20816D02F01F020CFA02F2BB
:100CD0004A60D0E919124A60C16E31B10A6822F443
:100CE00080720A60D0E91C124A600022016D80F80F
:100CF000342080F835C001B188470020DCE60000D0
:100D00002800024058000240700002408800024063
:100D1000A00002407004024088040240A004024087
:100D2000B8040240085402582DE9FC5F0446FA4E0C
:100D30000020DFF8E48300904FF41652F74808F1E2
:100D40001808A56DDFF8D0A3DFF8CCB301680AF16D
:100D5000300A20680BF1480BB1FBF2F1B04201916F
:100D60002F68D5F800C0DFF8B89336D041468842E6
:100D700033D0504531D058452FD0E74960318842B3
:100D80002BD0E5497831884227D0E3499031884219
:100D900023D0E149A83188421FD048451DD0E04901
:100DA0001831884219D0DE493031884215D0DC4AEA
:100DB0004832904211D0DA49603188420DD0DFF8D4
:100DC00060E30EF1780E704507D0D54B9033984212
:100DD00003D0D349A83188427ED194F85C20082101
:100DE00002F01F0201FA02F23A424BD0B04233D075
:100DF000404531D050452FD058452DD0C64A60329D
:100E0000904229D0C44A7832904225D0C24A9032CA
:100E1000904221D0C04AA83290421DD048451BD0F4
:100E2000BF4A1832904217D0BD4A3032904213D098
:100E3000BB4A483290420FD0B94A603290420BD040
:100E4000B74A7832904207D0B54A9032904203D0E8
:100E5000B34AA832904203D1026802F0040202E0D1
:100E6000026802F008026AB1026822F0040202601D
:100E700094F85C0000F01F008140A960606D40F0B4
:100E80000100606594F85C00012100F01F008140C2
:100E9000394241D02068B04235D0404533D050452A
:100EA00031D058452FD09C4A603290422BD09A4A7C
:100EB0007832904227D0984A9032904223D0964A76
:100EC000A83290421FD048451DD0954A1832904212
:100ED00019D0934A303200E0B2E1904213D0904AE8
:100EE000483290420FD08E4A603290420BD08C4AEA
:100EF0007832904207D08A4A9032904203D0884A92
:100F0000A83290427ED1406910F0800F04D0A960D1
:100F1000606D40F00200606594F85C00042100F010
:100F20001F00814039423FD02068B04233D0404555
:100F300031D050452FD058452DD0774A603290425D
:100F400029D0754A7832904225D0734A9032904227
:100F500021D0714AA83290421DD048451BD0704A1A
:100F60001832904217D06E4A3032904213D06C4AF9
:100F7000483290420FD06A4A603290420BD0684AA1
:100F80007832904207D0664A9032904203D0644A49
:100F9000A83290424FD1006810F0020F04D0A9602F
:100FA000606D40F00400606594F85C00102100F072
:100FB0001F008140394259D02068B04235D04045A9
:100FC00033D0504531D058452FD0534A60329042EB
:100FD0002BD0514A7832904227D04F4A90329042DB
:100FE00023D04D4AA83290421FD048451DD04C4ACC
:100FF0001832904219D04A4A3032904215D0484AAD
:10100000483200E015E090420FD0454A60329042ED
:101010000BD0434A7832904207D0414A90329042F6
:1010200003D03F4AA832904207D1006800F0080080
:1010300006E0006870E70068B6E7006800F00400AA
:10104000A0B1A96020680168490304D500680003C5
:1010500008D5A16C07E00168C90503D4016821F037
:1010600008010160216C09B12046884794F85C00B2
:10107000202100F01F008140394278D02068B04222
:1010800033D0404531D050452FD058452DD0224A3D
:101090006032904229D0204A7832904225D01E4AB0
:1010A0009032904221D01C4AA83290421DD048452F
:1010B0001BD01B4A1832904217D0194A3032904246
:1010C00013D0174A483290420FD0154A60329042EE
:1010D0000BD0134A7832904207D0114A9032904296
:1010E00003D00F4AA832904203D1006800F01000EC
:1010F00002E0006800F00200A0B3A96094F8350097
:101100000428206801680DD049037DD500680003DC
:1011100029D4616C28E00000100002400C0000247B
:101120001004024021F0160101602068416921F09D
:1011300080014161206C08B9A06C20B12068016871
:1011400021F00801016094F85C303F21002203F097
:101150001F0301209940A96084F8342084F83500E9
:10116000216D66E003E0E16B09B120468847606DC0
:1011700000287DD0606DC0075AD02068042184F813
:101180003510B0422BD0404529D0504527D0584586
:1011900025D09E49884222D09C49183188421ED0D1
:1011A0009A49303188421AD098494831884216D03D
:1011B000484514D09649884211D095491831884243
:1011C0000DD093493031884209D091494831884245
:1011D00005D08F496031884201D08D49783101684E
:1011E00021F00101016020680099019A491C0091D9
:1011F000914202D80168C907F6D1002184F8341061
:101200000068C00711D000E001E003200EE0016893
:10121000C905A8D403680022012123F0100303604C
:1012200084F8342084F835109DE7012084F83500D7
:10123000E16C00291CD002B02046BDE8F05F0847F1
:10124000744988421DD073491431884219D07149BC
:101250002831884215D06F493C31884211D06D4900
:10126000503188420DD06B496431884209D000E08A
:1012700086E068497831884203D066498C318842DB
:101280007ED194F85C800427016808F01F0807FAF3
:1012900008F717EA0C0F009746D04F0744D500987F
:1012A0000F04686003D5C8033CD4A16CC1E788066D
:1012B00038D42068B0422DD054494839884229D0CA
:1012C000504527D0584525D05049884222D04F4913
:1012D000183188421ED04D49303188421AD04B49CE
:1012E0004831884216D0484514D04949884211D027
:1012F0004749183188420DD090420BD044494831BB
:10130000884207D0704505D0984203D040499031BB
:10131000884203D1016821F0080102E0016821F050
:1013200004010160216C84E7022707FA08F717EA35
:101330000C0F00974ED08F074CD500980F046860B3
:1013400003D5C80344D4616C73E7880640D4206891
:10135000B0422FD02D49483988422BD0504529D052
:10136000584527D02949884224D028491831884235
:1013700020D02649303188421CD02449483100E031
:1013800041E0884216D0484514D02149884211D006
:101390001F49183188420DD090420BD01C4948316A
:1013A000884207D0704505D0984203D01849903143
:1013B000884203D1016821F0140102E0016821F0A4
:1013C0000A010160002184F83410012084F83500FE
:1013D000E16B2EE7082202FA08F212EA0C0F12D093
:1013E000090710D5016821F00E01016094F85C1026
:1013F0000120002201F01F0100FA01F1696060651F
:1014000084F8342012E7BDE8FC9F00007000024021
:1014100028040240085402582DE9F05F044600F009
:1014200001FB002C07467DD0E34E022120684FF0DF
:101430000308DFF888934FF00005DFF884A3B0427B
:10144000DFF880B334D0DC4A1832904230D04845BF
:101450002ED050452CD058452AD0DA4A1832904226
:1014600026D0D84A3032904222D0D64A48329042D2
:101470001ED0D54A90421BD0D34A1832904217D082
:10148000D14A3032904213D0CF4A483290420FD0E6
:10149000CD4A603290420BD0CB4A7832904207D08E
:1014A000C94A9032904203D0C74AA83290427DD1B7
:1014B00084F8345084F83510B0422ED0BE4918312B
:1014C00088422AD0484528D0504526D0584524D0B7
:1014D000BC491831884220D0BA49303188421CD0EA
:1014E000B8494831884218D0B749884215D0B64922
:1014F0001831884211D0B449303188420DD0B249F8
:101500004831884209D0B0496031884205D0AE499F
:101510007831884201D0AC499031016821F0010155
:10152000016008E027E100BF00F07CFAC01B05283D
:1015300001D920211CE120680068C007F4D104F122
:1015400008002168D4E9053C8E4685C80968104327
:10155000D4E907281F43636A38439C4F40EA0C00D4
:101560001043394040EA0800042B40EA010003D14F
:10157000D4E90B1211430843954909686FF30F0131
:10158000B1F1005F0FD36168A1F12902052A08D9E2
:10159000163A032A05D9083A012A02D94F390329F4
:1015A00001D840F48010CEF8000000E023E020686D
:1015B000676A4069042F20F0070047EA00070DD151
:1015C000D4E90A01074349B12046FFF73FFA28B1A1
:1015D00040206065012184F83510CCE02068476127
:1015E0002046FFF751F994F85C203F2102F01F02DA
:1015F0009140816054E0774A90421BD0754B143380
:10160000984217D0734B2833984213D0714B3C3318
:1016100098420FD06F4B503398420BD06D4B6433D0
:10162000984207D06B4B7833984203D0694B8C3388
:1016300098427DD1684B84F8345084F835100168A5
:10164000A26801EA030E402A73D0802A72D00022D9
:10165000D4E90378D4E9053142EAD70242EAD8084E
:101660005C4AD4E9077C48EAD30848EAD10141EA58
:10167000D701524241EA1C11142341EA0E010160D4
:1016800020681044B0FBF3F08000E0652046FFF7CF
:10169000FBF894F85C20012102F01F0291404160A8
:1016A0002068B04257D044491831884253D0484549
:1016B00051D050454FD058454DD0424918318842FD
:1016C00049D040493031884245D03E49483188426E
:1016D00041D03D4988423ED03B49183188423AD0FA
:1016E00039493031884236D037494831884232D082
:1016F0003549603188422ED03349783188422AD02A
:1017000031499031884226D02F49A831884222D0D1
:10171000304988421FD02F49143188421BD02D49AF
:101720002831884217D02B493C31884213D002E03F
:101730001DE017E018E02749503188420BD02549B9
:101740006431884207D023497831884203D0214947
:101750008C31884229D12046FFF7F0F8A068802814
:101760000CD00CE0102273E74FF4804270E7402168
:10177000616584F835800120BDE8F09F6560216EC9
:1017800020790860D4E9190141606068401E07288B
:1017900008D82046FFF720F9E06E0560D4E91C0167
:1017A000416002E0E566256765670120656584F8AC
:1017B00035000020E0E70000100002404000024039
:1017C0005800024070000240100402403F8010FEAA
:1017D0000010005C085402580F00FEFF2DE9FC4F7A
:1017E00001257E4C00234FF0030A4FF0B04E4FF01E
:1017F0000F0BEBE005FA03F637403A0077D04F685D
:10180000012F05D0022F03D0112F01D0122F1AD192
:1018100087684FEA4308D1F80CC00AFA08F927EAAA
:1018200009070CFA08FC4CEA070CC0F808C0476826
:1018300091F804C0B743CCF3001C0CFA03FC4CEA4B
:10184000070CC0F804C0C6684FEA430CD1F8088002
:10185000E1460AFA0CF7BE43019708FA09F848EA8C
:101860000608C0F80C804E68022E01D0122E12D14C
:10187000DE084FEA437C00EB860600960F69366A65
:101880004FEADC6C0BFA0CF807FA0CF726EA0806AC
:101890003743009E37620E790768DDF804C006F012
:1018A000030606FA09F627EA0C073E4306604E686F
:1018B000F6001CD54A4E376847F002073760366895
:1018C0009F0706F00206009623F0030606F1B046D5
:1018D000B1463F0FD6F80864DFF808810BFA07FC21
:1018E000404526EA0C0603D14FF0000C41E06CE0C5
:1018F000DFF8F4C0604502D14FF0010C39E0DFF8A9
:10190000ECC0604502D14FF0020C32E0DFF8E0C0DD
:10191000604502D14FF0030C2BE0DFF8D8C06045E2
:1019200002D14FF0040C24E0DFF8CCC0604502D1B6
:101930004FF0050C1DE0DFF8C4C0604502D14FF048
:10194000060C16E0DFF8B8C0604502D14FF0070C76
:101950000FE0DFF8B0C0604502D14FF0080C08E09E
:10196000DFF8A4C0604502D14FF0090C01E04FF050
:101970000A0C0CFA07FC4CEA060CC9F808C42668E5
:101980004F6826EA0206FF0300D516432660666804
:101990004F6826EA0206BF0300D516436660D1F8F9
:1019A00004C07646DEF800705FEACC2C27EA020716
:1019B00000D517433760D1F804C077685FEA8C2CF4
:1019C00027EA020700D5174377605B1C0A681746B1
:1019D000DA407FF40FAFBDE8FC8F000080000058B4
:1019E000F44402580000025800040258000802584B
:1019F000000C025800100258001402580018025837
:101A0000001C025800200258002402580AB18161CB
:101A100070470904FBE7000001480068000C7047AC
:101A20000010005C0148806870470000000000243E
:101A300002488168027811448160704700000024E8
:101A4000032010B500F086F800F0E8FF0F4A1049B7
:101A500014681368C4F3032203F00F038A5CC95CA3
:101A600002F01F0201F01F01D0400A4A20FA01F1E2
:101A7000116009490860002000F010F808B1012049
:101A800010BD00F02BF8002010BD000018440258D3
:101A9000845F0008100000240C00002470B50D4D78
:101AA00004462878A0B14FF47A71B1FBF0F00A49EE
:101AB0000968B1FBF0F001F0D3FA48B9102C07D255
:101AC00000222146501E00F025F800206C6070BDF9
:101AD000012070BD000000240C000024054808B55A
:101AE000016841F002010160006800F0020000900E
:101AF00008BD0000F4440258002809DB410900F049
:101B00001F028900012001F1E0219040C1F800018D
:101B1000704700000E4BF0B41B680D46C3F3022360
:101B2000C3F10706042E00D90426191D072901D286
:101B3000002300E0DB1E012404FA06F19C40491E4C
:101B40002940641E994014402143F0BC02F000BCBF
:101B50000CED00E0064900F0070210B54FF6FF0457
:101B60000868044B204040EA02201843086010BD7A
:101B70000CED00E00000FA05134970B50A68D24385
:101B8000520705D5096801F00701814213D118E019
:101B90000A6822F0070202430A60FFF743FF0A4D7A
:101BA0004FF47A760446083D07E000BFFFF73AFF9E
:101BB000001BB04201D9012070BD2868C0438004D9
:101BC000F4D4002070BD00000C48025810B500F09D
:101BD000DFFE05490968054AC1F30211515C01F0B5
:101BE0001F01C84010BD000020440258845F000857
:101BF000494930B5484C0B1D0A68143409681D6802
:101C0000246802F00303C5F30012C1F30531C4F3E5
:101C1000CC04002914FB02F200EE102AF8EE400A70
:101C200075D03F4A9FED3D1AB7EE000A6BB1DFED6C
:101C30003D1A012B01D0022B64D002EE101A11685C
:101C4000F8EE422A81EEA22A21E0334C283C236898
:101C50009B0612D5344B246801EE901A1168C4F328
:101C6000C104F8EE612AE34001EE903AC1F30801A5
:101C7000F8EE611A81EEA22A0BE001EE901ADFED78
:101C80002B2A00BFF8EE611A116882EEA12AC1F377
:101C9000080101EE901A1168F8EE611A40EE811AFF
:101CA00071EE800A62EE200AC1F3462101EE101A9D
:101CB000B8EE411A31EE001AC0EE811ABCEEE11AFC
:101CC00080ED001A1168C1F3064101EE101AB8EE5A
:101CD000411A31EE001AC0EE811ABCEEE11A80ED15
:101CE000011A1168C1F3066101EE101AB8EE411A2B
:101CF00031EE000A80EE801ABCEEC10A80ED020AC5
:101D000030BD04E001EE901ADFED092ABAE70021A8
:101D1000016041608160F3E7284402580000003907
:101D2000384402580024744A0090D0030024744CB4
:101D300020BCBE4B494930B5484C0B1D0A681C34C9
:101D400009681D68246802F00303C5F30022C1F38B
:101D50000551C4F3CC04002914FB02F200EE102A52
:101D6000F8EE400A75D03F4A9FED3D1AB7EE000AE3
:101D70006BB1DFED3D1A012B01D0022B64D002EED6
:101D8000101A1168F8EE422A81EEA22A21E0334CA3
:101D9000283C23689B0612D5344B246801EE901A28
:101DA0001168C4F3C104F8EE612AE34001EE903AF1
:101DB000C1F30801F8EE611A81EEA22A0BE001EEF0
:101DC000901ADFED2B2A00BFF8EE611A116882EE3F
:101DD000A12AC1F3080101EE901A1168F8EE611A08
:101DE00040EE811A71EE800A62EE200AC1F34621AC
:101DF00001EE101AB8EE411A31EE001AC0EE811A47
:101E0000BCEEE11A80ED001A1168C1F3064101EE43
:101E1000101AB8EE411A31EE001AC0EE811ABCEE6B
:101E2000E11A80ED011A1168C1F3066101EE101A82
:101E3000B8EE411A31EE000A80EE801ABCEEC10AFB
:101E400080ED020A30BD04E001EE901ADFED092AB0
:101E5000BAE70021016041608160F3E7284402583D
:101E600000000039404402580024744A0090D00316
:101E70000024744C20BCBE4B2DE9FC5F044650F896
:101E8000241B002500902E460801FE4FDFF8F88342
:101E90001DD5606E50B1B0F5801F0CD0B0F5001F9D
:101EA0000ED0B0F5401F1DD001250FE0386840F47A
:101EB0000030386016E00221201D01F019FC03E01B
:101EC0000098022101F0A4FC05000BD02E462088CA
:101ED000C00523D5606D05281ED2DFE800F00C1187
:101EE000161B1B00626ED8F8001021F4401111433C
:101EF000C8F80010EBE7386840F40030386009E0BB
:101F00000021201D01F0F4FB03E00098002101F006
:101F10007FFC05466DB100E001252E462088800536
:101F200028D5A06D80281ED00CDC90B140280ED1A1
:101F300014E0626DD8F8001021F007011143C8F8D1
:101F40000010EBE7C02813D0B0F5807F10D001253A
:101F50000FE0386840F40030386009E00021201DAF
:101F600001F0C6FB03E00098002101F051FC05469A
:101F700095B12E462088DFF81093400509F1080935
:101F80002CD5D4F8A400B0F5800F20D00DDCA0B182
:101F9000B0F5001F0FD115E0A26DD8F8001021F4A4
:101FA000E0711143C8F80010E4E7B0F5C00F13D09A
:101FB000B0F5000F10D001250FE0386840F4003074
:101FC000386009E00021201D01F092FB03E0009839
:101FD000002101F01DFC054675B12E462088000544
:101FE0002DD5D4F8A800B0F1007F21D00EDCA8B127
:101FF000B0F1807F10D116E0D4F8A420D9F80010F9
:1020000021F460011143C9F80010E7E7B0F1407F07
:1020100013D0B0F1806F10D001250FE0386840F484
:102020000030386009E00021201D01F061FB03E071
:102030000098002101F0ECFB05466DB12E462068AA
:1020400080011FD5A06CD8B110280FD0202812D045
:10205000302815D0012514E0D4F8A820D9F80010B4
:1020600021F0E0611143C9F80010E8E7386840F456
:102070000030386004E00221201D01F039FB0546E4
:102080006DB12E462088C0042BD5E06DB0F5005F01
:1020900020D00DDCA0B1B0F5805F0FD115E07A48FB
:1020A000A26C001F016821F0300111430160E9E7D3
:1020B000B0F5405F13D0B0F5804F10D001250FE090
:1020C000386840F40030386009E00021201D01F03C
:1020D0000FFB03E00098002101F09AFB054685B153
:1020E0002E462088800429D5206EB0F5403F23D0AD
:1020F00010DC08B3B0F5803F14D0B0F5003F0FD12D
:1021000015E0E26DD8F8001021F4E0411143C8F861
:102110000010E6E7B0F5802F0ED0B0F5A02F0BD061
:1021200001250AE00121201D01F0E2FA03E00098F8
:10213000012101F06DFB05468DB12E46208840043B
:102140002AD5D4F8AC00B0F1405F23D010DC08B33E
:10215000B0F1805F14D0B0F1005F0FD115E0226EB6
:10216000D8F8001021F4E0211143C8F80010E5E789
:10217000B0F1804F0ED0B0F1A04F0BD001250AE096
:102180000121201D01F0B4FA03E00098012101F0C3
:102190003FFB05466DB12E46208800041FD5E06E3A
:1021A000D8B1B0F1805F0ED0B0F1005F10D0012542
:1021B00014E0D4F8AC20D9F8001021F0E04111432C
:1021C000C9F80010E8E7386840F40030386004E0EF
:1021D0000121201D01F08CFA05466DB12E462068C4
:1021E000C0011ED5606CD0B101280ED0022811D0DC
:1021F000032814D0012513E0E26ED8F8001021F076
:1022000040511143C8F80010E9E7386840F4003045
:10221000386004E00221201D01F06AFA054685B10C
:102220002E462068DFF85CB04002ABF11C0B57D59E
:102230001648016841F480710160FFF7F3FB8246A4
:102240000EE01148626C001F016821F00301114388
:102250000160E6E7FFF7E6FBA0EB0A0064283DD843
:102260000A480068C005F5D57DBBDFF81CA0B4F8AE
:10227000B0100AF1200ADAF8000001F4407100F40D
:10228000407005E02C44025850440258004802585F
:10229000884211D0DAF80010DAF8002021F44071F9
:1022A00042F48032CAF80020DAF8002022F48032AA
:1022B000CAF80020CAF80010D4F8B000B0F5807F4A
:1022C00021D1FFF7AFFB019019E008E0FFF7AAFB6F
:1022D0000199411A41F28830814210D903252E46D6
:1022E0002078DFF830A4C0073DD0A06F182838D080
:1022F00026DC80B3082829D0102825D12CE0DAF874
:1023000000008007E2D5D4F8B010C1F30120032803
:1023100058460DD0016821F47C510160B4F8B0201A
:10232000DAF80010C2F30B021143CAF80010D7E725
:10233000F94A036802EA111223F47C511143ECE7D5
:1023400020280ED028280CD001250BE00121201DCB
:1023500001F0CEF904E004E00098012101F058FA00
:1023600005465DB12E46207880071ED5606F062891
:1023700019D2DFE800F0160C11161616A26FDAF863
:10238000001021F038011143CAF80010EBE70121D9
:10239000201D01F0ADF903E00098012101F038FAA9
:1023A000054675B100E001252E46207840071FD56F
:1023B000D4F89000062819D2DFE800F0160C1116A8
:1023C0001616626FDAF8001021F007011143CAF8FF
:1023D0000010EAE70121201D01F08AF903E00098CE
:1023E000012101F015FA05469DB100E001252E46B8
:1023F000207880062BD5D4F88C00B0F1405F24D033
:1024000011DC10B3B0F1805F15D0B0F1005F10D1D6
:1024100016E0D4F89020D9F8001021F007011143FC
:10242000C9F80010E4E7B0F1804F0ED0B0F1A04F32
:102430000BD001250AE00021201D01F059F903E02D
:102440000098022101F0E4F905468DB12E4620786E
:1024500040062BD5D4F89800B0F5406F24D011DC9D
:1024600010B3B0F5806F15D0B0F5006F10D116E045
:10247000D4F88C20DAF8001021F0E0411143CAF8BA
:102480000010E4E7B0F5805F0ED0B0F5A05F0BD090
:1024900001250AE00021201D01F02AF903E000983F
:1024A000022101F0B5F905468DB12E4620780006CF
:1024B0002BD5D4F89C00B0F5C04F24D011DC10B35C
:1024C000B0F5005F15D0B0F5804F10D116E0D4F80C
:1024D0009820D9F8001021F4E0511143C9F80010F8
:1024E000E4E7B0F5004F0ED0B0F5204F0BD001253A
:1024F0000AE00021201D01F0FBF803E00098022112
:1025000001F086F905464DB12E46207800071ED50C
:10251000D4F88000B0F5805F0AD00FE0D4F89C209A
:10252000D9F8001021F460411143C9F80010ECE71C
:102530000098022101F06CF900B10126D4F8802046
:10254000DAF8001021F440511143CAF80010207845
:10255000C00613D5D4F89400B0F5807F05D100985B
:10256000022101F055F900B10126D4F89420D9F8E0
:10257000001021F440711143C9F8001020680003D5
:1025800016D5D4F8A00038B1B0F5803F09D0B0F529
:10259000003F0BD001250AE00021201D01F0A8F822
:1025A00003E00098022101F033F9054685B12E467B
:1025B0002068400322D5D4F88400B0F5801F11D0E4
:1025C000B0F5001F13D0B0F5401F15D0012514E061
:1025D000D4F8A020D9F8001021F440311143C9F8F3
:1025E0000010E5E7386840F40030386004E00098F7
:1025F000012101F00DF9054655B12E462068C003B2
:102600001CD5E06C70B1B0F5803F10D0012514E00E
:10261000D4F88420DAF8001021F440111143CAF8EC
:102620000010EBE7386840F40030386004E0022125
:10263000201D01F05DF80546CDB12E4620688000D2
:1026400005D50098022101F0E3F800B101262068C9
:1026500080031BD5E06FB8B1B0F5807F10D0B0F526
:10266000007F11D0B0F5407F0ED001250DE0294844
:10267000E26C0838016821F4803111430160DDE724
:10268000386840F400303860F5B32E462068C00248
:1026900007D5226FD8F8001021F000411143C8F887
:1026A00000102068C00008D5D4F8B420DBF8001072
:1026B00021F480411143CBF800102068800207D537
:1026C000A26ED8F8001021F080711143C8F80010F4
:1026D000206840000CD5DBF8001021F40041CBF855
:1026E0000010DBF80010D4F8B8201143CBF800102C
:1026F0002068002807DA0748226D0838016821F0B1
:1027000040511143016000E008E086B10120BDE8BE
:10271000FC9F000054440258CFFFFF00E26FDAF83C
:10272000001021F440711143CAF80010AEE70020F8
:10273000EDE700002DE9F05F04000F467ED0DFF8E2
:102740003882D8F8000000F00F00B8420CD2D8F858
:10275000001021F00F013943C8F80010D8F800002C
:1027600000F00F00B84269D12078844D40070AD5A7
:102770002069296801F07001884204D9296821F094
:1027800070010143296020787C4E361D00070AD570
:102790006069316801F07001884204D9316821F024
:1027A0007001014331602078C0060AD5A069316804
:1027B00001F4E061884204D9316821F4E061014309
:1027C00031602078DFF8B4B180060BF1080B0CD52E
:1027D000E1695846DBF8002002F07002914204D90A
:1027E000026822F070020A430260207880070AD54E
:1027F000E068296801F00F01884204D9296821F0B6
:102800000F01014329602078C0073ED05B49A268D0
:102810002868183920F47060104328606068022826
:1028200018D0032819D00968012819D049070029B0
:102830004ADADFF848A1AAF1080A00E044E0DAF831
:10284000002022F007020243CAF80020FFF7EAF84E
:10285000814612E009688903E9E709688901E6E72A
:10286000C905E4E7FFF7DEF8A0EB090141F2883083
:10287000814202D90320BDE8F09F6168DAF80000C8
:1028800000F03800B0EBC10FECD1207880070AD5FA
:10289000E068296801F00F01884204D2296821F01C
:1028A0000F0101432960D8F80010404601F00F01E4
:1028B000B9420BD9016821F00F013943016000686A
:1028C00000F00F00B84201D00120D4E72078400783
:1028D0000AD52069296801F07001884204D229686C
:1028E00021F0700101432960207800070AD5606952
:1028F000316801F07001884204D2316821F0700122
:10290000014331602078C0060AD5A069316801F41E
:10291000E061884204D2316821F4E0610143316012
:10292000207880060CD5E1695846DBF8002002F0DB
:102930007002914204D2026822F070020A430260DF
:1029400000F06CF80E492A682B68C2F3032203F0EA
:102950000F038A5CC95C02F01F0201F01F01D04026
:10296000084A20FA01F11160074908600748006829
:10297000BDE8F05FFFF792B80020005218440258FB
:10298000845F0008100000240C00002404000024D0
:1029900030B500F043F80B4A0B490C4B156814682E
:1029A000C5F3032204F00F048A5C095D02F01F02E4
:1029B00001F01F01D040064A20FA01F119601060B1
:1029C000084630BD18440258845F000810000024F7
:1029D0000C00002400B5FFF7DBFF05490968054A34
:1029E000C1F30211515C01F01F01C84000BD00009D
:1029F0001C440258845F000800B5FFF7C9FF054971
:102A00000968054AC1F30221515C01F01F01C84069
:102A100000BD00001C440258845F0008454970B5A1
:102A200045480968434B103B11F0380208D00111AA
:102A3000082A03D0102A0BD0182A0BD0084670BDE4
:102A400019688906FBD51968C1F3C101C84070BD7A
:102A50003A4870BD3749374D18310C1D24350A6886
:102A6000096826682D6802F0030406F00102C1F32C
:102A70000511C5F3CC0515FB02F200EE102AB8EEE5
:102A8000400AE9B32F4ADFED2E0AB7EE001A6CB107
:102A9000DFED2D1A012C01D0022C43D002EE101ACA
:102AA0001068F8EE422A81EEA22A1EE01C68A406F5
:102AB00011D51B6801EE901A1168C3F3C103F8EE3B
:102AC000612AD84001EE900AC1F30800F8EE611ABD
:102AD00081EEA22A0BE001EE901ADFED1C2A00BF66
:102AE000F8EE611A106882EEA12AC0F3080001EE28
:102AF000900AF8EE611A40EE201A31EE810A00E0E9
:102B000015E022EE000A1068C0F34620401C00EEDB
:102B1000900AF8EE600A80EE201ABCEEC10A10EEB0
:102B2000100A70BD01EE901ADFED092AD8E70020E7
:102B300070BD0000104402580090D00340787D0121
:102B400000000039304402580024744A0024744CB8
:102B500020BCBE4B2DE9F05F04006FD0FD4F207804
:102B6000FC4D1837DFF8EC93103DC0074AD0D9F878
:102B70000000396800F03800102815D0182803D15B
:102B800001F0030002280FD06068B0F5803F12D03A
:102B900010B1B0F5A02F1AD0286820F4803028603A
:102BA000286820F4802009E0286880032AD560681E
:102BB0000028D2D026E0286840F480302860606881
:102BC0004FF4FA7888B1FEF72DFF064609E0286831
:102BD00040F480202860EEE7FEF724FF801B40458C
:102BE0007ED828688003F7D50CE0FEF71BFF064669
:102BF00005E000BFFEF716FF801B4045F0D82868AF
:102C00008003F7D4207841F20308D24E0C3E8007AF
:102C100053D5D9F80000396810F038000FD01828C3
:102C200001D188070BD0E068A8B3296821F0190109
:102C300001432960FEF7F6FE82461BE0DBE02868D0
:102C4000400702D5E068002887D0FEF7E5FE404542
:102C50001AD82069402811D0316821F47C3141EA2A
:102C60000030306029E000BFFEF7DCFEA0EB0A0078
:102C70000228B5D828684007F6D5E6E7306820F482
:102C80007C3040F40030ECE7207C316821F0FE41DC
:102C900041EA0060E5E7FFE7286820F001002860CE
:102CA000FEF7C0FE824605E0FEF7BCFEA0EB0A0080
:102CB000022895D828684007F6D42078C0065FD54A
:102CC000D9F80000DFF88CB2396800F03800ABF1B9
:102CD000040B082812D0182805D101F0030000E0E9
:102CE000EAE001280AD0E0690028286838D040F0DE
:102CF00080002860FEF796FE824623E02868C00523
:102D000023D5E069802876D11FE0206A202821D0D1
:102D1000316821F0F84141EA8060306030E000BF66
:102D200094F82010DBF8002022F07C5242EA016186
:102D3000CBF8001024E000BFFEF774FEA0EB0A0001
:102D4000022896D82868C005F6D5FEF765FE4045EE
:102D5000E6D8DAE7306820F0F84040F08040DCE761
:102D600020F080002860FEF75DFE064605E000BF0B
:102D7000FEF758FE801B02289BD82868C005F7D4B0
:102D80002078000729D5734861696430002980469E
:102D9000016811D041F001010160FEF743FE0646D3
:102DA00005E000BFFEF73EFE801B0228C9D8D8F818
:102DB00000008007F6D510E021F001010160FEF768
:102DC00031FE064605E000BFFEF72CFE801B022800
:102DD00072D8D8F800008007F6D42078800623D572
:102DE000A0690028286810D040F480502860FEF7C1
:102DF00019FE064605E02CE1FEF714FE801B0228B2
:102E00005AD828688004F7D50EE020F48050286056
:102E1000FEF708FE064604E0FEF704FE801B0228CB
:102E20004AD828688004F7D4207840074FD5DFF8C7
:102E30002881D8F8001041F48071C8F80010FEF71E
:102E4000F1FD064605E000BFFEF7ECFD801B64289F
:102E500032D8D8F80000C005F6D53E4EA0686036DE
:102E600001280AD008B1052813D0306820F00100ED
:102E70003060306820F0040002E0306840F001006B
:102E80003060A06841F2883A90B1FEF7CBFD8046F1
:102E90000AE0306840F004003060EEE7FEF7C2FD63
:102EA000A0EB0801514507D830688007F6D50EE041
:102EB000FEF7B8FD804607E084E000BFFEF7B2FDF4
:102EC000A0EB080151457DD830688007F6D4606AD0
:102ED000F0B3DFF88080D9F8001008F12008C1F3C2
:102EE000C20103296FD00228286820F08070286072
:102EF00003D0FEF797FD044680E0FEF793FD0646FB
:102F000005E000BFFEF78EFD801B022873D82868FD
:102F10008001F7D4E26A40F2F331386854F8283F70
:102F2000884340EA021018433860217B4FF4FE0CBE
:102F300022894FF0FE47208A4902267D521E401EFC
:102F4000A1F5007189B20CEA0040C2F3080205E065
:102F500081E0000010440258004802581143761ED8
:102F600001433E4807EA066211433C4AC8F8001094
:102F70000832016821F00101016011684FF6F8760E
:102F8000236AB14341EAC30111600168A26921F0DB
:102F90000C01114301600168E26921F00201114353
:102FA0000160016841F480310160016841F4003141
:102FB0000160016841F480210160016841F0010174
:102FC000016001E017E01DE0286840F08070286093
:102FD000FEF728FD044604E0FEF724FD001B02284E
:102FE00009D828688001F7D535E000BFFEF71AFD43
:102FF000001B022802D90320BDE8F09F2868800149
:10300000F4D428E039680128D8F8000021D0A26A59
:1030100001F0030393421CD1E26AC1F305118A4215
:1030200017D1216BC0F30802491E8A4211D1616B8E
:10303000C0F34622491E91420BD1A16BC0F3064258
:10304000491E914205D1E16BC0F30660491E8142E1
:1030500001D00120D0E70020CEE700002C44025828
:10306000401EB0F1807F10B501D3012010BD4FF09C
:10307000E02460610F21601701F06AF90020A0616F
:103080000721216110BD30B590F87C10012918D0BE
:10309000012280F87C202421C0F880100022202406
:1030A00050F8601B0B680D6823F0005325F00105F4
:1030B0000D60426050F8601C0B600462027710469D
:1030C00030BD022030BD704770B5044690F87C00DA
:1030D00001281DD0012284F87C202420C4F880001F
:1030E00020680568026822F0010202602068826898
:1030F00022F060620A438260204600F0E5FC22680C
:10310000202100201560C4F8801084F87C0070BD78
:10311000022070BD70B5044690F87C0001281DD0D7
:10312000012284F87C202420C4F8800020680568EF
:10313000026822F0010202602068826822F0604288
:103140000A438260204600F0BFFC22682021002054
:103150001560C4F8801084F87C0070BD022070BD3A
:1031600070477047704700002DE9F041036804463E
:10317000002540F60F06D86919689A68304209D1CF
:1031800086067DD501F0200602F080573E4377D0B9
:10319000E16E9EE0614E624F16400F4037436FD0A4
:1031A000C70709D0CF0507D501271F62D4F888309B
:1031B00043F00103C4F8883083070AD5D30708D049
:1031C000276802233B62D4F8883043F00403C4F834
:1031D000883043070AD5D30708D0276804233B6209
:1031E000D4F8883043F00203C4F8883003070CD5C4
:1031F00001F02003334308D0266808233362D4F853
:10320000883043F00803C4F8883003050BD54B0120
:1032100009D526684FF400633362D4F8883043F050
:103220002003C4F88830D4F88830002B34D08006CE
:1032300009D501F0200002F08051084303D0E16E6F
:1032400009B1204688472168D4F888008968490672
:1032500002D410F0280F21D0204600F005FD206890
:103260008168490615D5816821F040018160A06F11
:1032700078B12C490165A06FFDF714FC002800E02F
:1032800012E009D0A06F016D00E02046BDE8F041DA
:1032900008472046FFF766FFBDE8F0812046FFF7AC
:1032A00061FFC4F88850F7E7C60209D5560207D572
:1032B0004FF4801018622046BDE8F041FFF751BF7F
:1032C000060609D501F0800602F40002164303D079
:1032D000216F0029D9D1DFE742060DD54A060BD56B
:1032E0001A682021204622F040021A60C4F880109B
:1032F000256700F09AF9CFE7020206D54A0004D507
:103300002046BDE8F041FFF72BBFC001C4D500291E
:10331000C2DA2046BDE8F041FFF7D5BE010000103B
:1033200020010004533C000810B5040003D0D4F879
:10333000800010B107E0012010BD002084F87C005F
:10334000204600F027F82420C4F880002068016897
:1033500021F001010160204600F09EFD0128EBD024
:10336000A06A10B1204600F0E1FB2068416821F41A
:10337000904141602068816821F02A0181602068C5
:10338000016841F0010101602046BDE8104000F0F5
:1033900031BC000070B586B0064614216846FCF7C3
:1033A000CFFF2249306888423DD12148016841F071
:1033B00010010160006800F0100005901C481038F2
:1033C000016841F00101016000680025022100F060
:1033D000010005904FF4C06007228DE823001548D6
:1033E0006946CDE90352FEF7F9F914482921124C38
:1033F0000215831584E82300C4E903526561204661
:10340000C4E9065325626562FEF706F808B1FDF7C8
:1034100048FB0022B46725201146A663FEF77AFB1D
:103420002520FEF769FB06B070BD000000100140CA
:10343000F044025800000258FC0000241000024032
:1034400070B5D0F88430202B6CD1B9B1B2B190F8FE
:103450007C30012B66D08468012580F87C500023E5
:1034600081652E03C366B442A0F85C20A0F85E20FC
:103470004FF0FF0107D1046914B11DE0012070BDB8
:1034800040F2FF1118E04FF07F059CB1B4F1805F6E
:1034900015D0A0F860302221C0F88830C0F8841020
:1034A00001688C6844F001048C60416EB1F1005FEA
:1034B0000CD025E0046934B9A0F86010EBE701698D
:1034C00009B13F21F8E7A0F86050E4E7B0F86810D0
:1034D000914215D88168B14201D1016971B1124997
:1034E000C16680F87C3001680A6842F480720A6024
:1034F0000068816841F0805181600FE00B49EFE77F
:103500008168B14201D1016951B10949C16680F8B0
:103510007C300068016841F490710160002070BD4A
:103520000449F3E7022070BDF53D0008F13C0008B6
:10353000953D0008913C000810B500680749884295
:103540000BD107480178074801F0A2FEBDE8104002
:10355000034901220448FFF773BF10BD001001406A
:103560001400002494010024700000242DE9F84385
:103570000446D0F880001F4616460D46202852D13A
:10358000DDB1D6B194F87C0001284CD0012084F83C
:103590007C0021224FF00008C4F88880C4F8802005
:1035A0001834FEF73FFA814654F8100CA687E687D8
:1035B000183CB0F5805F03D004E00120BDE8F8833B
:1035C000206920B12E46002584F87C8010E000267A
:1035D000FAE78021204600F037FEB8B9C6B116F8E8
:1035E000010B21688862B4F85600401EA4F856000A
:1035F000B4F856004B464FF0000200970028E8D17F
:103600004FF04001204600F01FFE38B10320D5E7FF
:1036100035F8020B2168C0F30800E3E72020C4F866
:1036200080000020CAE70220C8E77047FEE70000DC
:1036300010B586B014216846FCF782FE1548016873
:1036400041F001010160016801F00101059101688B
:1036500041F004010160016801F004010591016875
:1036600041F080010160006800220B4C012100F054
:10367000800005902046FEF7C9F90021204601226E
:103680000092CDE9012103916946FEF7A7F806B043
:1036900010BD0000E044025800000258114800210B
:1036A00010B50F4C0C224FF4E1330460C0E9013136
:1036B000C160C0E904128161C1610162416281623D
:1036C000FFF732FE07480021FFF724FD05480021DF
:1036D000FFF7FAFCBDE810400248FFF7D4BC000039
:1036E0000010014070000024FEE7704770470000A2
:1036F0002DE9F047454D044689464FF0000A2868F9
:10370000C04380070AD0414E283E306820F08060D8
:103710003060FEF787F90746B04608E00120BDE8B3
:10372000F08700BFFEF77EF9C01B022867D8D8F8E3
:1037300000000001F6D4206829684FF4FE0721F448
:103740007C313E0241EA00302860207AA389B4F837
:1037500004C040022D4D2D495B1E227CACF1010CB2
:103760001035091DA0F5007080B2521ECCF3080C74
:1037700007EA034340EA0C00184306EA02621043DA
:1037800028600868626920F0C000104308600A6879
:10379000A06922F0200202430A60281D0A6822F074
:1037A00010020A6002684FF6F873E4699A4342EA2D
:1037B000C40202600868B9F1000F40F010020A600C
:1037C00011D00868B9F1010F11D040F40010086061
:1037D000D8F80000444640F08060C8F80000FEF7CA
:1037E00021F905460DE0086840F40020EFE740F4B9
:1037F0008010ECE7FEF716F9401B022801D90320E0
:103800008DE720680001F5D5504688E72844025826
:103810002DE9F047454D044689464FF0000A2868D7
:10382000C04380070AD0414E283E306820F08050C7
:103830003060FEF7F7F80746B04608E00120BDE823
:10384000F08700BFFEF7EEF8C01B022867D8D8F853
:1038500000008000F6D4208829684FF4FE0721F08C
:103860007C713E0241EA00502860207AA389B4F8B6
:1038700004C040022D4D2D495B1E227CACF1010C91
:103880001835091DA0F5007080B2521ECCF3080C4B
:1038900007EA034340EA0C00184306EA02621043B9
:1038A00028600868626920F44060104308600A6874
:1038B000A06922F4007202430A60281D0A6822F4FB
:1038C00080720A6002684FF6F873E4699A4342EA2C
:1038D000C40202600868B9F1000F40F480720A6007
:1038E00011D00868B9F1010F11D040F08070086064
:1038F000D8F80000444640F08050C8F80000FEF7B9
:1039000091F805460DE0086840F48000EFE740F4C8
:103910000000ECE7FEF786F8401B022801D90320DF
:103920008DE720688000F5D5504688E72844025886
:103930007047FEF77DB8000070B5CCB04C212FA8C1
:10394000FCF7FEFC202142A8FCF7FAFCBC216846EB
:10395000FCF7F6FC0220FEF70FF9204920480A6820
:1039600022F001020A6009680168002441F4404124
:103970000160016801F440414A9101688904FCD565
:103980000DF1E40C0521A022022038908CE80700FC
:103990003C9008263D90C3033E900125CDE93F644D
:1039A00041942FA8CDE92F53FFF7D4F840203F21B1
:1039B0000301CDE945600322CDE9470342AB4990BD
:1039C00042A883E816000221FEF7B4FE009568467F
:1039D0001E94FEF751FA4CB070BD00002C04005844
:1039E000184802582E48F0B52E4A016841F470017B
:1039F0000160106800F00F00072804D2106820F062
:103A00000F00C01D106028490020274C10340B689F
:103A1000264D43F001030B6020600B682B400B60C8
:103A2000136803F00F03072B04D9136823F00F0367
:103A3000DB1D13601C4C1E4A18341E4B261D371DFF
:103A40002060194C1C4D28343060261D3860371D0D
:103A500023603B1D35601C1D3A60251D2E1D18601E
:103A6000331D22602860326018600A680E4B134CC8
:103A700022F4802260330A60186020686FF30F0020
:103A8000B0F1005F03D20E490120C1F8080143F2F2
:103A9000D2000C49024B4A03803B08601A60F0BD1B
:103AA00088ED00E000200052004402587FEDF6EA65
:103AB00080020101000202020000FF010010005C10
:103AC00000800051004000523FB514A1D1E900230D
:103AD00014A1CDE90023D1E90021CDE90221416EF5
:103AE000B9B1016802AC8A688968C2F34262490FC1
:103AF0001DF80150615C2D01B5FBF1F1A0F86A10D1
:103B00001DF80210A25C0901B1FBF2F1A0F86810E7
:103B10003FBD0121A0F86A10F8E700000101010390
:103B200007010000080402040801010190F82810B0
:103B3000C90706D00168C36A4A6822F400321A43F2
:103B40004A6090F82810890706D50168036B4A6817
:103B500022F480321A434A6090F82810490706D5AB
:103B60000168436B4A6822F480221A434A6090F845
:103B70002810090706D50168836B4A6822F40042C1
:103B80001A434A6090F82810C90606D50168C36B2D
:103B90008A6822F480521A438A6090F828108906B5
:103BA00006D50168036C8A6822F400521A438A60C1
:103BB00090F82810490611D50168436C4A6822F430
:103BC00080121A434A60416CB1F5801F06D101682A
:103BD000836C4A6822F4C0021A434A6090F82810A5
:103BE000090606D50168C26C486820F4002010431D
:103BF00048607047F8B500260446C0F88860FDF7B5
:103C000011FF054620686FF07E470068000708D561
:103C100000222B464FF400112046009700F014FBC1
:103C200060B92068006840070AD500222B464FF48F
:103C300080012046009700F007FB08B10320F8BD83
:103C40002020C4F8800084F87C60C4F88400002040
:103C5000F8BD10B5806B0021A0F85E10A0F85610DA
:103C6000FFF780FA10BD000030B501682023074D32
:103C700000240A6822F490720A6001688A682A4067
:103C80008A60C0F88430C46630BD0000FEFFFFEFDC
:103C900010B5D0F88410B0F860202229016804D053
:103CA000886940F00800886110BD496A836D114041
:103CB0001980816D891C8165B0F85E10491EA0F8DD
:103CC0005E10B0F85E100029EED1016820220023BA
:103CD0000C6824F490740C6001688C6824F0010472
:103CE0008C60C0F88420C366FFF726FC10BD00007E
:103CF0002DE9F0410446D0F884002228B4F8606031
:103D000006D02068816941F008018161BDE8F08139
:103D1000B4F8685023E02068A16D406A3040088004
:103D2000A06D801CA065B4F85E00401EA4F85E0083
:103D3000B4F85E0088B9206820221449002307687F
:103D400027F480770760206887680F408760C4F891
:103D500084202046E366FFF7EFFB6D1EADB2002D19
:103D6000D9D1B4F85E000028D0D0B4F868108142F0
:103D7000CCD92068816821F0805181600448E066D8
:103D80002068016841F020010160BFE7FEFFFFEFFE
:103D9000913C000810B5D0F88410B0F860202229BA
:103DA000016804D0886940F00800886110BD496A44
:103DB000836D11401970816D491C8165B0F85E10EA
:103DC000491EA0F85E10B0F85E100029EED101681F
:103DD000202200230C6824F490740C6001688C6825
:103DE00024F001048C60C0F88420C366FFF7A4FBB4
:103DF00010BD00002DE9F0410446D0F884002228CF
:103E0000B4F8606006D02068816941F008018161E2
:103E1000BDE8F081B4F8685023E02068A16D406AE5
:103E200030400870A06D401CA065B4F85E00401ED4
:103E3000A4F85E00B4F85E0088B920682022144916
:103E40000023076827F480770760206887680F40A1
:103E50008760C4F884202046E366FFF76DFB6D1E83
:103E6000ADB2002DD9D1B4F85E000028D0D0B4F89E
:103E700068108142CCD92068816821F0805181602E
:103E80000448E0662068016841F020010160BFE756
:103E9000FEFFFFEF953D00082DE9F04304468068E2
:103EA000D94F87B02268D4E90465E369616E304375
:103EB00016681D432843D54B002501433E400E4361
:103EC00016602068E268416821F440511143416066
:103ED0002268A1699A4201D0206A01439668DFF8FE
:103EE00030C3CC4FCC4806EA0C060E4396602168DE
:103EF000666ACA6A22F00F023243CA622268BA4274
:103F00000ED1006800F03800182873D047DCB8B331
:103F1000082879D010286FD178E028287ED17BE05E
:103F2000BE498A4209D1006800F00700062875D210
:103F3000DFE800F0546A6C6E7072B9498A4209D1A8
:103F4000006800F00700062868D2DFE800F0475D4F
:103F50005F616365B3498A4209D1006800F00700D8
:103F600006285BD2DFE800F03A5052545658AE496A
:103F70008A420BD1006800F0070006284ED200E00C
:103F800010E0DFE800F02B4143454749A7498A424A
:103F90000AD1006800F03800182839D0B7DD202891
:103FA000BBD13CE001203AE0A1498A4209D1006836
:103FB00000F00700062831D2DFE800F01026282A9A
:103FC0002C2E9C498A420BD1006800F0070006287D
:103FD00024D2DFE800F003191B1D1F2100201EE082
:103FE0009A421BD18C48001D006800F0070006288B
:103FF00014D202E00CE007E010E0DFE800F0030577
:1040000007090B0D02200AE0042008E0082006E062
:10401000102004E0202002E0402000E080208649BB
:10402000DFF818829A42864A4FF400434FEA21177C
:104030004FF000064ED110281AD006DC022809D015
:1040400004280BD008287DD10DE020283ED0402840
:1040500078D13DE0FDF7BAFD014610E06846FDF776
:10406000C7FD01990BE003A8FDF764FE049906E083
:104070001068800604D51068C0F3C100C140C1B308
:10408000606A676838F8102007EB4703B1FBF2F06D
:10409000834257D8B0EB073F54D80023084619464F
:1040A000FCF716F90902020241EA106170084FEAB2
:1040B000370010183A4671410023FCF709F9614AAC
:1040C000A0F5407191423DD821684CE03946D7E7D0
:1040D0001946D5E7D4F81CC04FF6EF799C4552D16C
:1040E00008281AD006DC60B101280DD0042829D197
:1040F0000EE039E0102815D0202840D040287CD18F
:104100003FE0FEF767FC01E0FEF776FC014610E0B9
:104110006846FDF76DFD01990BE003A8FDF70AFE67
:10412000049906E01068800604D51068C0F3C10049
:10413000C140C9B1636A606838F81330B1FBF3F16C
:10414000490000E059E001EB5001B1FBF0F080B212
:10415000A0F11001494550D84FF6F0732168C0F323
:10416000420218401043C8600120A4F86A00A4F875
:1041700068002846E666266707B0BDE8F083394642
:10418000D8E71946D6E7082819D005DC58B1012828
:104190000CD0042831D10DE0102815D020282ED0C5
:1041A00040282AD12DE0FEF715FC01E0FEF724FCA3
:1041B000014610E06846FDF71BFD01990BE003A8DE
:1041C000FDF7B8FD049906E01068800605D5106873
:1041D000C0F3C100C1400029C6D0636A606838F8E6
:1041E0001330B1FBF3F101EB5001B1FBF0F080B201
:1041F000A0F1100149457FF667AF0125B4E73946C4
:10420000EBE71946E9E70000F369FFCF000C00581F
:10421000FFF4FF11001001405444025800440040D4
:1042200000480040004C0040005000400014014095
:1042300000780040007C00400090D0036C5F0008D4
:1042400000440258FFFC0F002DE9F0479A4617463C
:104250000E460446089D4FF000094FF0200839E053
:10426000681C37D0FDF7DEFBA0EB0A00A84222D87D
:104270000DB32068016849072CD5C069C04300050B
:1042800028D423684FF40061196221680B6823F475
:10429000D0730B6021688B6823F001038B60C4F836
:1042A0008080C4F88480C4F8888000BF032084F82C
:1042B0007C90BDE8F08721680B6823F4D0730B6015
:1042C00021688B6823F001038B60C4F88080C4F8F8
:1042D0008480EBE72068C06936EA000004D0002043
:1042E000B842BDD00020E4E70120F9E70148FEF71D
:1042F0003BBF000070000024FEE7000005494FF4BA
:104300000072034888666C31024801F0E5B800008D
:10431000194300089401002401B5044801224FF616
:10432000FF736946FFF722F908BD00007000002402
:104330000FB4054B10B503A9044A029800F0EAF83F
:1043400010BC5DF814FB0000454C00086C00002414
:10435000090700284FEA116104DB00F1E02080F832
:104360000014704700F00F0000F1E02080F8141DE9
:10437000704702E008C8121F08C1002AFAD170472E
:104380007047002001E001C1121F002AFBD17047D5
:104390002DE9FF5F82B00021DDE90430020DDDF878
:1043A00040B0034318D044F61050A2F2FF3242430B
:1043B0001514119801281FD0A5EB0B00401C5FEAD3
:1043C000000A4FF000064E4FDFF83891B0465046D5
:1043D00015D5CAF1000413E0119801244AA301285D
:1043E00001D16FEA0B010298119AC0E90031C0E9CE
:1043F000024206B0BDE8F09FCBF10000DFE70446C3
:104400000021404A491842EB0450CDE9001012E067
:10441000E00707D032463B4640464946FCF79BF84A
:104420008046894632463B4610461946FCF793F8CB
:1044300006460F466410002CEAD1DDE90401DDE9EF
:104440000023BAF1000F06DAFCF785F842464B4626
:10445000FCF781F805E0FCF7F0F842464B46FCF724
:10446000ECF804460E460022284BFCF76DF903D801
:104470004FF0FF30014607E00022254B2046314631
:10448000FBF7C2FFFCF748F9102409E0002C0ADB17
:104490000A220023FBF71CFF039B30321A55641ECF
:1044A00050EA0102F2D1641C039AC4F111031444CE
:1044B000119A012A03D0012208430DD10AE00843D2
:1044C00004D000204FF0110B119072E7A3EB0B0505
:1044D0006D1E0DE05B4504DD4FF0000205F10105A6
:1044E00004E003DA4FF00002A5F10105002AECD048
:1044F00002981199C0E90231C0E9004579E700004E
:10450000000014400000F03F300000000000F043C5
:104510000000E03F2DE9FF4F95B09B4689460646D7
:1045200000250FE2252877D100242746F84A0121EB
:10453000059400E0044316F8013F203B01FA03F024
:104540001042F7D130782A2811D06FF02F0330783D
:10455000A0F13002092A16D8059A44F0020402EBB1
:10456000820203EB42021044761C0590EFE759F8F3
:10457000042B0592002A03DA504244F400540590BB
:1045800044F00204761C30782E2816D116F8010F5C
:1045900044F004042A280DD06FF02F023078A0F1E7
:1045A0003003092B09D807EB870302EB4303C71835
:1045B000761CF3E759F8047B761C30786C280FD012
:1045C00006DC4C2817D068280DD06A2814D104E0E6
:1045D000742810D07A280FD10DE044F400140AE0BA
:1045E00044F4801401E044F440147278824202D111
:1045F00004F58014761C761C307866280BD013DC0A
:10460000582877D009DC002875D04528F6D04628F0
:10461000F4D047281AD19DE118E0632835D06428EA
:1046200079D0652812D195E1702873D008DC67280D
:10463000F1D069286FD06E280DD06F2806D1B5E073
:1046400073282CD0752875D0782874D05A461799BD
:1046500090476D1C75E1C4F30250022809D003286D
:104660000DD0D9F8001004280DD00D6009F104090F
:1046700067E1D9F80010EA17C1E90052F6E7D9F866
:1046800000100D80F2E70D70F0E719F8041B8DF8AB
:10469000001000208DF80100EA46012003E059F8DF
:1046A00004AB4FF0FF3061074FF0000102D40DE082
:1046B00008F101018846B9420FDA8045F8DB1AF8A3
:1046C00008100029F4D108E008F101018846814270
:1046D000FADB1AF808100029F6D105985B46A0EB22
:1046E000080721463846179A00F094FA284400EB50
:1046F000080507E04DE029E10DE01AF8010B5A46E4
:1047000017999047B8F10108F7D25B462146384621
:10471000179A13E142E00A220092C4F302524FF0CA
:10472000000A022A08D059F804CB032A4FEAEC7198
:104730000AD00DE029E02AE009F1070121F0070283
:10474000F2E802C1914609E00FFA8CFC4FEAEC71E5
:10475000042A03D14FFA8CFC4FEAEC71002907DAE6
:104760000A460021DCF1000C61EB02012D2202E07F
:10477000220504D52B228DF80420012203E0E20754
:1047800001D02022F7E7904659E00A2102E01022EA
:104790000DE010214FF0000A00910BE010224FF0C5
:1047A000000A44F004040827009203E008224FF0B6
:1047B000000A0092C4F30252022A05D059F804CB31
:1047C0000021032A08D009E009F1070121F00702BE
:1047D000F2E802C1914605E01FFA8CFC042A01D1DF
:1047E0000CF0FF0C4FF00008220728D5702806D0E7
:1047F000009B83F0100353EA0A0305D00EE0402229
:104800008DF80420012208E05CEA010206D0302283
:104810008DF804208DF8050002229046009B83F05D
:10482000080353EA0A030AD15CEA010201D16207D4
:1048300005D530228DF804204FF001087F1E58283E
:1048400004D034A003900EA802900DE036A0F9E742
:1048500053466046009AFBF73BFD84460398825C12
:104860000298401E029002705CEA0100F0D10298AA
:1048700006A9081A00F1200A600702D524F4803442
:1048800000E00127574502DDA7EB0A0000E0002009
:1048900000EB0A01009005984144401A0590E0039E
:1048A00006D45B462146179A059800F0B3F90544F3
:1048B000002706E001A85A46C05D179990476D1C75
:1048C0007F1C4745F6DBE0030CD55B462146179A73
:1048D000059800F09FF9054404E030205A461799E6
:1048E00090476D1C0099481E00900029F5DC08E0F7
:1048F000029802995A460078491C029117999047EC
:104900006D1CBAF10001AAF1010AF1DC65E10000B9
:104910000928010030313233343536373839616295
:104920006364656600000000303132333435363759
:1049300038394142434445460000000000F058F930
:104940000544761C307800287FF4ECAD19B0284679
:10495000BDE8F08F620700D4062709F1070222F0B4
:10496000070CFCE80223E14603F000485FEA080C6C
:1049700002D00FF2702C0DE05FEA045C02D50FF25A
:10498000682C07E05FEAC47C02D00FF2602C01E0E3
:10499000AFF2700C4FF0FF3823F00043CDF850C059
:1049A00065280CD006DC452809D046281DD04728AC
:1049B0003DD13DE0662818D067287ED138E000213F
:1049C000112F01DB112000E0781CCDE9000106A9C0
:1049D0000EA8FFF7DDFCDDE90F010E9A039100211F
:1049E000009207F1010A04914DE04FF0004000975A
:1049F000CDE9011006A90EA8FFF7CAFCDDE90F02F8
:104A000003920E9B11990022DDF80CA000930492F2
:104A100011B9791C00EB010AB7EB0A0004D4C0F10C
:104A2000FF3007F1010A0490AAEB0700019044E06F
:104A3000012F00DA01270021112F01DD112000E0F4
:104A40003846CDE9000106A90EA8FFF7A1FCDDE973
:104A50000F010E9A0391002104910092BA4621079A
:104A60000CD40399514500DA8A46BAF1010F05DDED
:104A7000009AAAF10101515C302908D0B84202DA4B
:104A800010F1040F06DA0121CDE9011015E0AAF1B9
:104A90000101E9E7002805DC049901440491AAEB2F
:104AA000000102E0411C514500DD8A460499401A8C
:104AB000401C01904FF000400290200704D4019860
:104AC000504501DBCDF8048000208DF84F0002989E
:104AD0000DF14F07B0F1004F25D02B200E9002981A
:104AE0004FF0020800280CDA404202902D200E9070
:104AF00007E00A210298FBF752FC3031029007F8D8
:104B0000011DB8F10001A8F10108F2DC02980028AB
:104B1000EFD1791E0E980870307800F0200040F038
:104B2000450007F8020D12A8C01B00F107081498F1
:104B3000007800B1012000EB0A01019801EBE0715F
:104B400005984144401A401E0590E00306D45B4698
:104B50002146179A059800F05DF8054414980078EE
:104B600018B15A46179990476D1CE00324D55B464F
:104B70002146179A059800F04DF805441CE004986A
:104B8000002807DBDDE90301884203DD0098405C73
:104B9000179901E0179930205A469047049805F17B
:104BA0000105401C04900198401E019004D12E2064
:104BB0005A46179990476D1CBAF10001AAF1010AF3
:104BC000DDDC05E017F8010B5A46179990476D1C7C
:104BD000B8F10001A8F10108F4DC5B462146179A00
:104BE0000598ABE62D0000002B000000200000001F
:104BF0002DE9F041044600251E461746880404D4DA
:104C000005E039462020B0476D1C641EF9D52846C2
:104C1000BDE8F0812DE9F041044600251E4690468E
:104C2000C80301D5302700E02027880404D505E01B
:104C300041463846B0476D1C641EF9D52846BDE88C
:104C4000F08100000349CA695206FCD5C2B28A62EB
:104C5000704700000010014008B5BFF34F8FBFF34D
:104C60006F8F2A4900200860BFF34F8FBFF36F8F0B
:104C7000274A116841F400311160BFF34F8FBFF331
:104C80006F8F234970310860BFF34F8F081F43F6C1
:104C9000FF7400681D4D1035C0F34E33C0F3C901D9
:104CA00004EA4316084600BF46EA80772F60401E9C
:104CB000FAD25B1EF4D2BFF34F8F106840F48030FD
:104CC0001060BFF34F8FBFF36F8FFCF7B9FEFEF795
:104CD00033FEFEF7ADFC0F48016841F001010160B1
:104CE00000680022114600F0010000900B20FCF744
:104CF00011FF0B20FCF700FFFEF7D0FC0649012254
:104D00000648FEF79DFBFFF7F9FAFEE750EF00E0DB
:104D100014ED00E0D8440258140000247000002470
:104D2000012100F047B80A7842B14B7803F00F0335
:104D3000082B03D003681B781A4208D090F8600053
:104D4000C00702D14878C00601D5002070474FF057
:104D5000FF30704710B500F067FA002805D003490E
:104D6000896BBDE8104001F0C3B810BD18000024E5
:104D700070B505468089E989401A04B204E0A96E3D
:104D800020208847641E24B2002CF8DC297B2846AA
:104D9000BDE8704000F06EB810B500F045FA00288C
:104DA00003D0BDE8104000F05DBC10BD4FF0FF31F6
:104DB000AFF300802DE9F0410446481C03D00023E6
:104DC000E28912B103E00123FAE701294FD0A0895B
:104DD000824201D14D1C4AD082424FF0000501D1E0
:104DE000012901D0184613E02169401E80B2521EED
:104DF000E281A0810D542046BDE8F041012100F080
:104E000039B82769421E461C3944475C30B28F547A
:104E1000A289E189521A8242F3DCA089A0F1010043
:104E2000A0812BB9E089401EE081A16E082088474F
:104E3000A18920694554B4F90E5005E02069A16E9E
:104E4000405D88476D1C2DB2A089A842F6DCA16E9A
:104E500020208847A089E189401A401C05B204E05F
:104E6000A16E082088476D1E2DB2002DF8DCBDE82C
:104E7000F081000070B50C46054603E003A128460A
:104E800001F036F8611ECCB2F8D270BD08200800DF
:104E90004FF0FF3100F09CBA10B5044600F006F860
:104EA0002046BDE81040012100F0B4BF70B50446B3
:104EB0008089002835D0216900251E4E0D5494F8B4
:104EC0006000C00721D0204600F0D2FA204600F052
:104ED000E5FCE08EE5810028A58122D016A12046C0
:104EE00001F006F8A26D00236169204600F07AFD0A
:104EF000010004D02046BDE8704000F017BDB16944
:104F00002046BDE8704000F0F3BF2068816820694A
:104F1000FBF728FA30B1716B204600F0E9FFA5815C
:104F2000E58170BD94F8600040F0010084F86000F5
:104F30003168F1E7180000240D0A0000411C002030
:104F40000A785C2A01D01046704749786E290FD044
:104F500004DC3029F8D0622904D105E0722905D09B
:104F6000742907D008467047082070470D20704705
:104F70000A20704709207047F0B5017800230A27FE
:104F80000446012518462D291E4608D0002121443B
:104F9000002291F800C0BCF1300F04D01EE00121C6
:104FA0004FF0FF35F3E74A78782A07D0582A05D022
:104FB000622A05D0422A03D002220FE003220DE02C
:104FC00001220BE091F800C0BCF12E0F06D191F840
:104FD00001C0BCF1000F01D0042211E011F801CB97
:104FE000BCF1000FEED1012A08D0022A03D0032A17
:104FF00006D1102703E00827012301E0022702233E
:10500000691C234402D000215C181FE00121FBE74A
:105010002E2905D0A1F13003092B03D8D9B20FE016
:10502000012612E0A1F16103052B01D8573904E0F4
:10503000A1F14103052B02D83739C9B200E00021A4
:1050400000FB071006EB86035E00641C2178002934
:10505000DED1042A13D196B100EE100A00EE906A58
:1050600001EE105AB8EE400AF8EE600AF8EEC11AE6
:1050700080EE201A21EE210A10EE100AF0BD6843DE
:10508000F0BD2DE9F0410446087827280AD02D28E4
:1050900003D0A0F13002092A0CD8BDE8F04108463F
:1050A000FFF76ABF4A78002AF3D0BDE8F04108460E
:1050B000FFF744BF24284FF0000608D0002817D07F
:1050C0000D464FF0000722282C4613D01DE04A78E9
:1050D000002AF5D0A26D0023491C204600F082FC76
:1050E000010004D02046BDE8F04100F0B1B83046E0
:1050F000BDE8F0816C1C254607E05C280BD0222817
:105100000FD0E8557F1CBFB2641C20780028F4D172
:105110002846EE55ECE7601EFFF710FF641CE855CB
:10512000F0E7EE55EEE72DE9F0478CB099461546CD
:105130000C462021824603A8FBF702F9A0786E1ED8
:1051400000F00F07B74200DC374600250DF10C08D0
:1051500008E009EB850041685046FFF792FF48F8E8
:1051600025006D1CB542F4DB082F3CD2DFE807F0C8
:1051700004090D12181E2630A06880470CB0BDE847
:10518000F087A16803988847F8E7DDE90301A26882
:105190009047F3E703ADA36895E807009847EDE76C
:1051A00003ADA46895E80F00A047E7E7079803ADB3
:1051B0000090A46895E80F00A047DFE7DDE907014C
:1051C00003ADCDE9000195E80F00A468A047D5E73D
:1051D00007AB03AD93E807008DE8070095E80F00E3
:1051E000A468A047CAE74FF0FF30C7E7C068704720
:1051F0000C4A3023002110B54C1C5354E1B209294C
:10520000FAD3417801F00F01012903D9072901D907
:10521000082901D8406810BD4068024900F0CEFD61
:10522000004810BD880100240849002051F82020C2
:1052300032B192F86020920702D551F820007047F1
:10524000401C00B20528F1DB0020704774010024E7
:10525000487800F00F020020921E062A06D2DFE8EE
:1052600002F003060A0D0D0F886800687047886811
:10527000B0F9000070478868007870478868704708
:105280008868416809B1006808470020704700003D
:105290002DE9F05F5FEA010905464CD0A86B1824A0
:1052A000002710F47F4F03D000246FF0FF070AE0BF
:1052B00010F47F0F02D0294F082404E0000E02D022
:1052C00010244FF07F474FF0000AD5F8588056461B
:1052D00035E000BF08EB061B9BF8010000F00F0053
:1052E00009282AD159462846FFF71DFD28BBDBF8BF
:1052F0000410AA6B01EA070090421ED1FF2009FAB0
:1053000004F300FA04FC01EA0C01994215D11A4396
:105310004FF00009AA6334B1A4F10802DBF80410CD
:105320009040014209D108EB0610816809B1284676
:105330008847C5F838A0BDE8F09F761C36B2B5F8AE
:105340005C00B042C6DCB9F1000FF4D049462846F3
:10535000C5F838A0BDE8F05F00F098BA0000FFFF84
:1053600070B50B460546FFF75FFF04002AD0012DFC
:1053700024D027DDA26D59684FF0000300F032FB06
:1053800005461148C16A204600F0B2FD2846FFF7E5
:105390002FFF0146204600F0ABFD0CA1204600F097
:1053A000A7FD2846FFF722FF0146204600F0A0FD9A
:1053B0002046BDE8704005A100F09ABDBDE87040F0
:1053C00000F050B970BD0000180000240D0A000064
:1053D00070B5002904464FF000051BDDB4F95430C8
:1053E000B4F85010B4F8520004F15004A3F10102D3
:1053F0008142A280A4F1500401D90A4600E002468D
:105400005242934212DC814200D908464042A4F83D
:1054100054000BE009DAB4F85400401C00B2A4F8C0
:105420005400002802DDA4F8545070BD2046FFF758
:105430009FFCB4F95400C0B1B4F8522005211044C7
:10544000401D90FBF1F201FB120004EB8000C16BE8
:10545000206900F0FDFB0028A081E6D0E081204615
:105460002169BDE8704000F043BDA581E58170BDB4
:1054700070B50446B0F850000025A4F8545058B157
:10548000B4F85200216900B9052004EB8000806B5C
:10549000FAF768FF00281ED0B4F85200216904EB27
:1054A0008000C06B00F0D4FB20B1B4F85200401C67
:1054B000A4F85200B4F85000401C80B2A4F8500088
:1054C000052802D90520A4F85000B4F85200052898
:1054D00001D3A4F8525070BD70B5044600200625D3
:1054E00094F86030B2FBF5F2216143F00103A08132
:1054F000E081A4F85400A4F85000A4F85200206001
:1055000084F86030A286421CA38E04EB800510B2A2
:10551000052803FB0212EA63F5DB11481149A06577
:10552000091A08091049A4F85C00002051F820204D
:105530009AB1401C00B20528F8DBA26D00230BA134
:10554000204600F04FFA0146204600F083FA20463C
:10555000BDE87040012100F05DBC41F82040ECE75F
:105560004C6300087C640008740100246C6574744A
:105570006572000070B5828E04468089521E90428A
:105580000EDB2C484168204600F0B2FC0121204689
:1055900000F040FC21692046BDE8704000F0A8BC46
:1055A000E2890023824210D1256900F10102A28123
:1055B0002954A28920698354E08900F10100E08127
:1055C0000846A16EBDE87040084731D2A0EB02004A
:1055D00000B207E0E689A0F1010225693544AE5C1E
:1055E000465510B20028F5DCE0892569421CE281AD
:1055F0002954A0892169401C80B2A0810B54E08904
:10560000401E05B205E02069A16E405D88476D1C13
:105610002DB2A089A842F6DCE18980B2401A05B219
:1056200004E0A16E082088476D1E2DB2002DF8DC25
:1056300070BD00001800002410B5FFF7F5FD00282C
:1056400003D0BDE8104000F0A9B810BD10B5044665
:10565000C089002805D0A16E08208847E089401E37
:10566000E08110BD2DE9F041876D06460F48816845
:10567000304600F03DFC002412E000BF07EB0415AB
:10568000687800F00F00012808D829463046FFF757
:105690004AFB18B92946304600F00AF8641C24B2C7
:1056A000B6F85C00A042E9DCBDE8F08118000024F7
:1056B0002DE9F04104460E460846FFF799FD0146E4
:1056C000204600F015FCC0F1160005B2002D00DCEC
:1056D0000425A16E202088476D1E2DB2002DF8D123
:1056E00071782B4801F00F01012901D8016C0CE001
:1056F000072901D8416C08E0082901D8816C04E031
:10570000092901D8C16C00E0016D204600F0F0FBD2
:1057100020A1204600F0ECFB01270725307807FA8E
:1057200005F1084201D0782000E02D20A16E8847C5
:105730006D1E6DB2002DF1DA16A1204600F0D8FBE7
:105740003046FFF753FD0546A06E0026D0B111E0AC
:10575000A16E6D1C8847761CB6B2242E0AD36878D9
:1057600040B1A16E2E208847A16E2E208847A16EE1
:105770002E208847287828B10D2803D00A2801D088
:10578000242EE5D32046BDE8F04103A100F0B0BBD4
:1057900018000024202000000D0A00002DE9F0412F
:1057A000876D064610484169304600F0A1FB002491
:1057B00014E000BF07EB0415687800F00F0008281C
:1057C0000AD9092808D829463046FFF7ACFA18B993
:1057D00029463046FFF76CFF641C24B2B6F85C0023
:1057E000A042E7DCBDE8F081180000242DE9F0417B
:1057F000876D064610480169304600F079FB0024A9
:1058000014E000BF07EB0415687800F00F000728CC
:105810000AD9082808D829463046FFF784FA18B96B
:1058200029463046FFF744FF641C24B2B6F85C00FA
:10583000A042E7DCBDE8F081180000242DE9F0412A
:10584000876D06461048C168304600F051FB0024C1
:1058500013E000BF07EB0415687800F00F00801E0E
:10586000052808D829463046FFF75DFA18B92946B9
:105870003046FFF71DFF641C24B2B6F85C00A0425E
:10588000E8DCBDE8F08100001800002490F86020FA
:1058900022F0040280F86020FFF76CBE002370B590
:1058A00001241A4619464D1C00EB810629B208292D
:1058B0007261F8DB0021C28627E023B905696E5CBE
:1058C000202E1ED0EEB105696E5C222E01D11BB1D7
:1058D0000023012C02D00BE00123FAE7C48E082C30
:1058E00005D2661CC68600EB84040D446561002465
:1058F00005696E5C5C2E06D14E1CAD5D1DB1B1B26A
:1059000001E001246A54491C89B285898D42D4D8AA
:1059100070BDC1898289914206D203694A1CC28145
:10592000826E595C08461047704700002DE9F04729
:10593000044690F860000F4640F0020184F86010C1
:1059400004F11409787801070BD000F00F0001284A
:105950002BD0811E052936D83946204600F00EF995
:1059600037E04FF00008454617E000BF04EB85061E
:1059700070690178222904D180F800807069401C88
:105980007061FAF7E8FC80B27169401E0A5C222A55
:1059900001D101F800806D1CADB2E08EA842E5D8BF
:1059A000BA684946E08E904705E0E28E4B4639469C
:1059B0002046FFF7B8FB01467878800609D42046D8
:1059C00000F056FA05E0082803D13946204600F0D9
:1059D00041F894F8600020F0020084F86000BDE80F
:1059E000F08700002DE9F0470646806D8A4699460B
:1059F000101A1546B6F85C100024A1EB101087B2FF
:105A00001BE000BF05EB041898F8010000F00F0040
:105A1000092810D041463046FFF785F958B940466D
:105A2000FFF7E6FB0146B9F100000BD002465046F5
:105A3000FAF7A6FC50B1641CA4B2BC42E2D3002029
:105A4000BDE8F0875046FAF78DFCF3E705EB04104C
:105A5000F6E7000070B50160044688680D4600B3A3
:105A6000FAF779FCE8B1E08E022804D3A169A868AE
:105A7000FAF778FCA8B194F8600020F0010000BFAC
:105A80000B4D84F860002046A96B00F031FA94F8C1
:105A90006000C0070AD029682046BDE8704000F0C9
:105AA00027BA94F8600040F00100E9E770BD0000FB
:105AB000180000242DE9F0410E460746FFF7B4FB1D
:105AC000041E16D0A26D00233946FFF78BFF0E4D42
:105AD000010010D0487800F00F00801E06280CD37B
